{
  "_format": "hh-sol-artifact-1",
  "contractName": "NFT_ERC721",
  "sourceName": "contracts/NFT_ERC721.sol",
  "abi": [
    {
      "inputs": [],
      "stateMutability": "nonpayable",
      "type": "constructor"
    },
    {
      "anonymous": false,
      "inputs": [
        {
          "indexed": true,
          "internalType": "address",
          "name": "owner",
          "type": "address"
        },
        {
          "indexed": true,
          "internalType": "address",
          "name": "approved",
          "type": "address"
        },
        {
          "indexed": true,
          "internalType": "uint256",
          "name": "tokenId",
          "type": "uint256"
        }
      ],
      "name": "Approval",
      "type": "event"
    },
    {
      "anonymous": false,
      "inputs": [
        {
          "indexed": true,
          "internalType": "address",
          "name": "owner",
          "type": "address"
        },
        {
          "indexed": true,
          "internalType": "address",
          "name": "operator",
          "type": "address"
        },
        {
          "indexed": false,
          "internalType": "bool",
          "name": "approved",
          "type": "bool"
        }
      ],
      "name": "ApprovalForAll",
      "type": "event"
    },
    {
      "anonymous": false,
      "inputs": [
        {
          "indexed": false,
          "internalType": "uint256",
          "name": "_fromTokenId",
          "type": "uint256"
        },
        {
          "indexed": false,
          "internalType": "uint256",
          "name": "_toTokenId",
          "type": "uint256"
        }
      ],
      "name": "BatchMetadataUpdate",
      "type": "event"
    },
    {
      "anonymous": false,
      "inputs": [
        {
          "indexed": false,
          "internalType": "uint256",
          "name": "_tokenId",
          "type": "uint256"
        }
      ],
      "name": "MetadataUpdate",
      "type": "event"
    },
    {
      "anonymous": false,
      "inputs": [
        {
          "indexed": true,
          "internalType": "address",
          "name": "from",
          "type": "address"
        },
        {
          "indexed": true,
          "internalType": "address",
          "name": "to",
          "type": "address"
        },
        {
          "indexed": true,
          "internalType": "uint256",
          "name": "tokenId",
          "type": "uint256"
        }
      ],
      "name": "Transfer",
      "type": "event"
    },
    {
      "inputs": [
        {
          "internalType": "address",
          "name": "to",
          "type": "address"
        },
        {
          "internalType": "uint256",
          "name": "tokenId",
          "type": "uint256"
        }
      ],
      "name": "approve",
      "outputs": [],
      "stateMutability": "nonpayable",
      "type": "function"
    },
    {
      "inputs": [
        {
          "internalType": "address",
          "name": "_useraddr",
          "type": "address"
        },
        {
          "internalType": "string",
          "name": "username",
          "type": "string"
        },
        {
          "internalType": "string",
          "name": "_email",
          "type": "string"
        },
        {
          "internalType": "string",
          "name": "tokenURI",
          "type": "string"
        }
      ],
      "name": "awardDoc",
      "outputs": [
        {
          "internalType": "uint256",
          "name": "",
          "type": "uint256"
        }
      ],
      "stateMutability": "nonpayable",
      "type": "function"
    },
    {
      "inputs": [
        {
          "internalType": "address",
          "name": "owner",
          "type": "address"
        }
      ],
      "name": "balanceOf",
      "outputs": [
        {
          "internalType": "uint256",
          "name": "",
          "type": "uint256"
        }
      ],
      "stateMutability": "view",
      "type": "function"
    },
    {
      "inputs": [
        {
          "internalType": "uint256",
          "name": "_tokenId",
          "type": "uint256"
        }
      ],
      "name": "cancelDoc",
      "outputs": [],
      "stateMutability": "nonpayable",
      "type": "function"
    },
    {
      "inputs": [
        {
          "internalType": "uint256",
          "name": "tokenId",
          "type": "uint256"
        }
      ],
      "name": "getApproved",
      "outputs": [
        {
          "internalType": "address",
          "name": "",
          "type": "address"
        }
      ],
      "stateMutability": "view",
      "type": "function"
    },
    {
      "inputs": [
        {
          "internalType": "address",
          "name": "owner",
          "type": "address"
        },
        {
          "internalType": "address",
          "name": "operator",
          "type": "address"
        }
      ],
      "name": "isApprovedForAll",
      "outputs": [
        {
          "internalType": "bool",
          "name": "",
          "type": "bool"
        }
      ],
      "stateMutability": "view",
      "type": "function"
    },
    {
      "inputs": [],
      "name": "name",
      "outputs": [
        {
          "internalType": "string",
          "name": "",
          "type": "string"
        }
      ],
      "stateMutability": "view",
      "type": "function"
    },
    {
      "inputs": [
        {
          "internalType": "uint256",
          "name": "tokenId",
          "type": "uint256"
        }
      ],
      "name": "ownerOf",
      "outputs": [
        {
          "internalType": "address",
          "name": "",
          "type": "address"
        }
      ],
      "stateMutability": "view",
      "type": "function"
    },
    {
      "inputs": [
        {
          "internalType": "address",
          "name": "from",
          "type": "address"
        },
        {
          "internalType": "address",
          "name": "to",
          "type": "address"
        },
        {
          "internalType": "uint256",
          "name": "tokenId",
          "type": "uint256"
        }
      ],
      "name": "safeTransferFrom",
      "outputs": [],
      "stateMutability": "nonpayable",
      "type": "function"
    },
    {
      "inputs": [
        {
          "internalType": "address",
          "name": "from",
          "type": "address"
        },
        {
          "internalType": "address",
          "name": "to",
          "type": "address"
        },
        {
          "internalType": "uint256",
          "name": "tokenId",
          "type": "uint256"
        },
        {
          "internalType": "bytes",
          "name": "data",
          "type": "bytes"
        }
      ],
      "name": "safeTransferFrom",
      "outputs": [],
      "stateMutability": "nonpayable",
      "type": "function"
    },
    {
      "inputs": [
        {
          "internalType": "address",
          "name": "operator",
          "type": "address"
        },
        {
          "internalType": "bool",
          "name": "approved",
          "type": "bool"
        }
      ],
      "name": "setApprovalForAll",
      "outputs": [],
      "stateMutability": "nonpayable",
      "type": "function"
    },
    {
      "inputs": [
        {
          "internalType": "bytes4",
          "name": "interfaceId",
          "type": "bytes4"
        }
      ],
      "name": "supportsInterface",
      "outputs": [
        {
          "internalType": "bool",
          "name": "",
          "type": "bool"
        }
      ],
      "stateMutability": "view",
      "type": "function"
    },
    {
      "inputs": [],
      "name": "symbol",
      "outputs": [
        {
          "internalType": "string",
          "name": "",
          "type": "string"
        }
      ],
      "stateMutability": "view",
      "type": "function"
    },
    {
      "inputs": [
        {
          "internalType": "uint256",
          "name": "tokenId",
          "type": "uint256"
        }
      ],
      "name": "tokenURI",
      "outputs": [
        {
          "internalType": "string",
          "name": "",
          "type": "string"
        }
      ],
      "stateMutability": "view",
      "type": "function"
    },
    {
      "inputs": [
        {
          "internalType": "address",
          "name": "_to",
          "type": "address"
        },
        {
          "internalType": "uint256",
          "name": "_tokenId",
          "type": "uint256"
        }
      ],
      "name": "transferDoc",
      "outputs": [],
      "stateMutability": "nonpayable",
      "type": "function"
    },
    {
      "inputs": [
        {
          "internalType": "address",
          "name": "from",
          "type": "address"
        },
        {
          "internalType": "address",
          "name": "to",
          "type": "address"
        },
        {
          "internalType": "uint256",
          "name": "tokenId",
          "type": "uint256"
        }
      ],
      "name": "transferFrom",
      "outputs": [],
      "stateMutability": "nonpayable",
      "type": "function"
    },
    {
      "inputs": [
        {
          "internalType": "address",
          "name": "",
          "type": "address"
        },
        {
          "internalType": "uint256",
          "name": "",
          "type": "uint256"
        }
      ],
      "name": "users",
      "outputs": [
        {
          "internalType": "address",
          "name": "_useraddr",
          "type": "address"
        },
        {
          "internalType": "string",
          "name": "username",
          "type": "string"
        },
        {
          "internalType": "string",
          "name": "email",
          "type": "string"
        },
        {
          "internalType": "uint256",
          "name": "_tokenId",
          "type": "uint256"
        }
      ],
      "stateMutability": "view",
      "type": "function"
    },
    {
      "inputs": [
        {
          "internalType": "uint256",
          "name": "_tokenId",
          "type": "uint256"
        }
      ],
      "name": "viewDoc",
      "outputs": [
        {
          "internalType": "string",
          "name": "",
          "type": "string"
        }
      ],
      "stateMutability": "view",
      "type": "function"
    },
    {
      "inputs": [
        {
          "internalType": "uint256",
          "name": "_tokenId",
          "type": "uint256"
        }
      ],
      "name": "viewOwner",
      "outputs": [
        {
          "components": [
            {
              "internalType": "address",
              "name": "_useraddr",
              "type": "address"
            },
            {
              "internalType": "string",
              "name": "username",
              "type": "string"
            },
            {
              "internalType": "string",
              "name": "email",
              "type": "string"
            },
            {
              "internalType": "uint256",
              "name": "_tokenId",
              "type": "uint256"
            }
          ],
          "internalType": "struct NFT_ERC721.User",
          "name": "",
          "type": "tuple"
        }
      ],
      "stateMutability": "view",
      "type": "function"
    }
  ],
  "bytecode": "0x60806040523480156200001157600080fd5b506040518060400160405280600a81526020017f4e46545f455243373231000000000000000000000000000000000000000000008152506040518060400160405280600381526020017f4e4654000000000000000000000000000000000000000000000000000000000081525081600090816200008f919062000324565b508060019081620000a1919062000324565b5050506200040b565b600081519050919050565b7f4e487b7100000000000000000000000000000000000000000000000000000000600052604160045260246000fd5b7f4e487b7100000000000000000000000000000000000000000000000000000000600052602260045260246000fd5b600060028204905060018216806200012c57607f821691505b602082108103620001425762000141620000e4565b5b50919050565b60008190508160005260206000209050919050565b60006020601f8301049050919050565b600082821b905092915050565b600060088302620001ac7fffffffffffffffffffffffffffffffffffffffffffffffffffffffffffffffff826200016d565b620001b886836200016d565b95508019841693508086168417925050509392505050565b6000819050919050565b6000819050919050565b600062000205620001ff620001f984620001d0565b620001da565b620001d0565b9050919050565b6000819050919050565b6200022183620001e4565b6200023962000230826200020c565b8484546200017a565b825550505050565b600090565b6200025062000241565b6200025d81848462000216565b505050565b5b8181101562000285576200027960008262000246565b60018101905062000263565b5050565b601f821115620002d4576200029e8162000148565b620002a9846200015d565b81016020851015620002b9578190505b620002d1620002c8856200015d565b83018262000262565b50505b505050565b600082821c905092915050565b6000620002f960001984600802620002d9565b1980831691505092915050565b6000620003148383620002e6565b9150826002028217905092915050565b6200032f82620000aa565b67ffffffffffffffff8111156200034b576200034a620000b5565b5b62000357825462000113565b6200036482828562000289565b600060209050601f8311600181146200039c576000841562000387578287015190505b62000393858262000306565b86555062000403565b601f198416620003ac8662000148565b60005b82811015620003d657848901518255600182019150602085019450602081019050620003af565b86831015620003f65784890151620003f2601f891682620002e6565b8355505b6001600288020188555050505b505050505050565b6136c8806200041b6000396000f3fe608060405234801561001057600080fd5b50600436106101215760003560e01c80637000ba65116100ad578063b88d4fde11610071578063b88d4fde14610341578063c078f0591461035d578063c87b56dd1461038d578063e4024d41146103bd578063e985e9c5146103d957610121565b80637000ba651461028b57806370a08231146102a757806392eb104c146102d757806395d89b4114610307578063a22cb4651461032557610121565b806323b872dd116100f457806323b872dd146101c05780633e4242da146101dc57806342842e0e1461020c57806354a02f9e146102285780636352211e1461025b57610121565b806301ffc9a71461012657806306fdde0314610156578063081812fc14610174578063095ea7b3146101a4575b600080fd5b610140600480360381019061013b91906122e4565b610409565b60405161014d919061232c565b60405180910390f35b61015e61046a565b60405161016b91906123d7565b60405180910390f35b61018e6004803603810190610189919061242f565b6104fc565b60405161019b919061249d565b60405180910390f35b6101be60048036038101906101b991906124e4565b610542565b005b6101da60048036038101906101d59190612524565b610659565b005b6101f660048036038101906101f1919061242f565b6106b9565b60405161020391906123d7565b60405180910390f35b61022660048036038101906102219190612524565b6106cb565b005b610242600480360381019061023d91906124e4565b6106eb565b6040516102529493929190612586565b60405180910390f35b6102756004803603810190610270919061242f565b610868565b604051610282919061249d565b60405180910390f35b6102a560048036038101906102a0919061242f565b6108ee565b005b6102c160048036038101906102bc91906125d9565b610970565b6040516102ce9190612606565b60405180910390f35b6102f160048036038101906102ec919061242f565b610a27565b6040516102fe91906126f3565b60405180910390f35b61030f610cb8565b60405161031c91906123d7565b60405180910390f35b61033f600480360381019061033a9190612741565b610d4a565b005b61035b600480360381019061035691906128b6565b610d60565b005b610377600480360381019061037291906129da565b610dc2565b6040516103849190612606565b60405180910390f35b6103a760048036038101906103a2919061242f565b610f20565b6040516103b491906123d7565b60405180910390f35b6103d760048036038101906103d291906124e4565b611032565b005b6103f360048036038101906103ee9190612a95565b611041565b604051610400919061232c565b60405180910390f35b6000634906490660e01b7bffffffffffffffffffffffffffffffffffffffffffffffffffffffff1916827bffffffffffffffffffffffffffffffffffffffffffffffffffffffff191614806104635750610462826110d5565b5b9050919050565b60606000805461047990612b04565b80601f01602080910402602001604051908101604052809291908181526020018280546104a590612b04565b80156104f25780601f106104c7576101008083540402835291602001916104f2565b820191906000526020600020905b8154815290600101906020018083116104d557829003601f168201915b5050505050905090565b6000610507826111b7565b6004600083815260200190815260200160002060009054906101000a900473ffffffffffffffffffffffffffffffffffffffff169050919050565b600061054d82610868565b90508073ffffffffffffffffffffffffffffffffffffffff168373ffffffffffffffffffffffffffffffffffffffff16036105bd576040517f08c379a00000000000000000000000000000000000000000000000000000000081526004016105b490612ba7565b60405180910390fd5b8073ffffffffffffffffffffffffffffffffffffffff166105dc611202565b73ffffffffffffffffffffffffffffffffffffffff16148061060b575061060a81610605611202565b611041565b5b61064a576040517f08c379a000000000000000000000000000000000000000000000000000000000815260040161064190612c39565b60405180910390fd5b610654838361120a565b505050565b61066a610664611202565b826112c3565b6106a9576040517f08c379a00000000000000000000000000000000000000000000000000000000081526004016106a090612ccb565b60405180910390fd5b6106b4838383611358565b505050565b60606106c482610f20565b9050919050565b6106e683838360405180602001604052806000815250610d60565b505050565b6008602052816000526040600020818154811061070757600080fd5b9060005260206000209060040201600091509150508060000160009054906101000a900473ffffffffffffffffffffffffffffffffffffffff169080600101805461075190612b04565b80601f016020809104026020016040519081016040528092919081815260200182805461077d90612b04565b80156107ca5780601f1061079f576101008083540402835291602001916107ca565b820191906000526020600020905b8154815290600101906020018083116107ad57829003601f168201915b5050505050908060020180546107df90612b04565b80601f016020809104026020016040519081016040528092919081815260200182805461080b90612b04565b80156108585780601f1061082d57610100808354040283529160200191610858565b820191906000526020600020905b81548152906001019060200180831161083b57829003601f168201915b5050505050908060030154905084565b60008061087483611651565b9050600073ffffffffffffffffffffffffffffffffffffffff168173ffffffffffffffffffffffffffffffffffffffff16036108e5576040517f08c379a00000000000000000000000000000000000000000000000000000000081526004016108dc90612d37565b60405180910390fd5b80915050919050565b3373ffffffffffffffffffffffffffffffffffffffff1661090e82610868565b73ffffffffffffffffffffffffffffffffffffffff1614610964576040517f08c379a000000000000000000000000000000000000000000000000000000000815260040161095b90612dc9565b60405180910390fd5b61096d8161168e565b50565b60008073ffffffffffffffffffffffffffffffffffffffff168273ffffffffffffffffffffffffffffffffffffffff16036109e0576040517f08c379a00000000000000000000000000000000000000000000000000000000081526004016109d790612e5b565b60405180910390fd5b600360008373ffffffffffffffffffffffffffffffffffffffff1673ffffffffffffffffffffffffffffffffffffffff168152602001908152602001600020549050919050565b610a2f6121dd565b6000610a3a83610868565b90506000600860008373ffffffffffffffffffffffffffffffffffffffff1673ffffffffffffffffffffffffffffffffffffffff1681526020019081526020016000208054905011610ac1576040517f08c379a0000000000000000000000000000000000000000000000000000000008152600401610ab890612ec7565b60405180910390fd5b600860008273ffffffffffffffffffffffffffffffffffffffff1673ffffffffffffffffffffffffffffffffffffffff168152602001908152602001600020600081548110610b1357610b12612ee7565b5b90600052602060002090600402016040518060800160405290816000820160009054906101000a900473ffffffffffffffffffffffffffffffffffffffff1673ffffffffffffffffffffffffffffffffffffffff1673ffffffffffffffffffffffffffffffffffffffff168152602001600182018054610b9290612b04565b80601f0160208091040260200160405190810160405280929190818152602001828054610bbe90612b04565b8015610c0b5780601f10610be057610100808354040283529160200191610c0b565b820191906000526020600020905b815481529060010190602001808311610bee57829003601f168201915b50505050508152602001600282018054610c2490612b04565b80601f0160208091040260200160405190810160405280929190818152602001828054610c5090612b04565b8015610c9d5780601f10610c7257610100808354040283529160200191610c9d565b820191906000526020600020905b815481529060010190602001808311610c8057829003601f168201915b50505050508152602001600382015481525050915050919050565b606060018054610cc790612b04565b80601f0160208091040260200160405190810160405280929190818152602001828054610cf390612b04565b8015610d405780601f10610d1557610100808354040283529160200191610d40565b820191906000526020600020905b815481529060010190602001808311610d2357829003601f168201915b5050505050905090565b610d5c610d55611202565b83836116e1565b5050565b610d71610d6b611202565b836112c3565b610db0576040517f08c379a0000000000000000000000000000000000000000000000000000000008152600401610da790612ccb565b60405180910390fd5b610dbc8484848461184d565b50505050565b6000610dce60076118a9565b6000610dda60076118bf565b9050610de686826118cd565b610df08184611aea565b600060405180608001604052808873ffffffffffffffffffffffffffffffffffffffff168152602001878152602001868152602001838152509050600860008873ffffffffffffffffffffffffffffffffffffffff1673ffffffffffffffffffffffffffffffffffffffff16815260200190815260200160002081908060018154018082558091505060019003906000526020600020906004020160009091909190915060008201518160000160006101000a81548173ffffffffffffffffffffffffffffffffffffffff021916908373ffffffffffffffffffffffffffffffffffffffff1602179055506020820151816001019081610ef091906130c2565b506040820151816002019081610f0691906130c2565b506060820151816003015550508192505050949350505050565b6060610f2b826111b7565b6000600660008481526020019081526020016000208054610f4b90612b04565b80601f0160208091040260200160405190810160405280929190818152602001828054610f7790612b04565b8015610fc45780601f10610f9957610100808354040283529160200191610fc4565b820191906000526020600020905b815481529060010190602001808311610fa757829003601f168201915b505050505090506000610fd5611b8e565b90506000815103610fea57819250505061102d565b60008251111561101f5780826040516020016110079291906131d0565b6040516020818303038152906040529250505061102d565b61102884611ba5565b925050505b919050565b61103d3383836106cb565b5050565b6000600560008473ffffffffffffffffffffffffffffffffffffffff1673ffffffffffffffffffffffffffffffffffffffff16815260200190815260200160002060008373ffffffffffffffffffffffffffffffffffffffff1673ffffffffffffffffffffffffffffffffffffffff16815260200190815260200160002060009054906101000a900460ff16905092915050565b60007f80ac58cd000000000000000000000000000000000000000000000000000000007bffffffffffffffffffffffffffffffffffffffffffffffffffffffff1916827bffffffffffffffffffffffffffffffffffffffffffffffffffffffff191614806111a057507f5b5e139f000000000000000000000000000000000000000000000000000000007bffffffffffffffffffffffffffffffffffffffffffffffffffffffff1916827bffffffffffffffffffffffffffffffffffffffffffffffffffffffff1916145b806111b057506111af82611c0d565b5b9050919050565b6111c081611c77565b6111ff576040517f08c379a00000000000000000000000000000000000000000000000000000000081526004016111f690612d37565b60405180910390fd5b50565b600033905090565b816004600083815260200190815260200160002060006101000a81548173ffffffffffffffffffffffffffffffffffffffff021916908373ffffffffffffffffffffffffffffffffffffffff160217905550808273ffffffffffffffffffffffffffffffffffffffff1661127d83610868565b73ffffffffffffffffffffffffffffffffffffffff167f8c5be1e5ebec7d5bd14f71427d1e84f3dd0314c0f7b2291e5b200ac8c7c3b92560405160405180910390a45050565b6000806112cf83610868565b90508073ffffffffffffffffffffffffffffffffffffffff168473ffffffffffffffffffffffffffffffffffffffff16148061131157506113108185611041565b5b8061134f57508373ffffffffffffffffffffffffffffffffffffffff16611337846104fc565b73ffffffffffffffffffffffffffffffffffffffff16145b91505092915050565b8273ffffffffffffffffffffffffffffffffffffffff1661137882610868565b73ffffffffffffffffffffffffffffffffffffffff16146113ce576040517f08c379a00000000000000000000000000000000000000000000000000000000081526004016113c590613266565b60405180910390fd5b600073ffffffffffffffffffffffffffffffffffffffff168273ffffffffffffffffffffffffffffffffffffffff160361143d576040517f08c379a0000000000000000000000000000000000000000000000000000000008152600401611434906132f8565b60405180910390fd5b61144a8383836001611cb8565b8273ffffffffffffffffffffffffffffffffffffffff1661146a82610868565b73ffffffffffffffffffffffffffffffffffffffff16146114c0576040517f08c379a00000000000000000000000000000000000000000000000000000000081526004016114b790613266565b60405180910390fd5b6004600082815260200190815260200160002060006101000a81549073ffffffffffffffffffffffffffffffffffffffff02191690556001600360008573ffffffffffffffffffffffffffffffffffffffff1673ffffffffffffffffffffffffffffffffffffffff168152602001908152602001600020600082825403925050819055506001600360008473ffffffffffffffffffffffffffffffffffffffff1673ffffffffffffffffffffffffffffffffffffffff16815260200190815260200160002060008282540192505081905550816002600083815260200190815260200160002060006101000a81548173ffffffffffffffffffffffffffffffffffffffff021916908373ffffffffffffffffffffffffffffffffffffffff160217905550808273ffffffffffffffffffffffffffffffffffffffff168473ffffffffffffffffffffffffffffffffffffffff167fddf252ad1be2c89b69c2b068fc378daa952ba7f163c4a11628f55a4df523b3ef60405160405180910390a461164c8383836001611cbe565b505050565b60006002600083815260200190815260200160002060009054906101000a900473ffffffffffffffffffffffffffffffffffffffff169050919050565b61169781611cc4565b60006006600083815260200190815260200160002080546116b790612b04565b9050146116de576006600082815260200190815260200160002060006116dd919061221b565b5b50565b8173ffffffffffffffffffffffffffffffffffffffff168373ffffffffffffffffffffffffffffffffffffffff160361174f576040517f08c379a000000000000000000000000000000000000000000000000000000000815260040161174690613364565b60405180910390fd5b80600560008573ffffffffffffffffffffffffffffffffffffffff1673ffffffffffffffffffffffffffffffffffffffff16815260200190815260200160002060008473ffffffffffffffffffffffffffffffffffffffff1673ffffffffffffffffffffffffffffffffffffffff16815260200190815260200160002060006101000a81548160ff0219169083151502179055508173ffffffffffffffffffffffffffffffffffffffff168373ffffffffffffffffffffffffffffffffffffffff167f17307eab39ab6107e8899845ad3d59bd9653f200f220920489ca2b5937696c3183604051611840919061232c565b60405180910390a3505050565b611858848484611358565b61186484848484611e12565b6118a3576040517f08c379a000000000000000000000000000000000000000000000000000000000815260040161189a906133f6565b60405180910390fd5b50505050565b6001816000016000828254019250508190555050565b600081600001549050919050565b600073ffffffffffffffffffffffffffffffffffffffff168273ffffffffffffffffffffffffffffffffffffffff160361193c576040517f08c379a000000000000000000000000000000000000000000000000000000000815260040161193390613462565b60405180910390fd5b61194581611c77565b15611985576040517f08c379a000000000000000000000000000000000000000000000000000000000815260040161197c906134ce565b60405180910390fd5b611993600083836001611cb8565b61199c81611c77565b156119dc576040517f08c379a00000000000000000000000000000000000000000000000000000000081526004016119d3906134ce565b60405180910390fd5b6001600360008473ffffffffffffffffffffffffffffffffffffffff1673ffffffffffffffffffffffffffffffffffffffff16815260200190815260200160002060008282540192505081905550816002600083815260200190815260200160002060006101000a81548173ffffffffffffffffffffffffffffffffffffffff021916908373ffffffffffffffffffffffffffffffffffffffff160217905550808273ffffffffffffffffffffffffffffffffffffffff16600073ffffffffffffffffffffffffffffffffffffffff167fddf252ad1be2c89b69c2b068fc378daa952ba7f163c4a11628f55a4df523b3ef60405160405180910390a4611ae6600083836001611cbe565b5050565b611af382611c77565b611b32576040517f08c379a0000000000000000000000000000000000000000000000000000000008152600401611b2990613560565b60405180910390fd5b80600660008481526020019081526020016000209081611b5291906130c2565b507ff8e1a15aba9398e019f0b49df1a4fde98ee17ae345cb5f6b5e2c27f5033e8ce782604051611b829190612606565b60405180910390a15050565b606060405180602001604052806000815250905090565b6060611bb0826111b7565b6000611bba611b8e565b90506000815111611bda5760405180602001604052806000815250611c05565b80611be484611f99565b604051602001611bf59291906131d0565b6040516020818303038152906040525b915050919050565b60007f01ffc9a7000000000000000000000000000000000000000000000000000000007bffffffffffffffffffffffffffffffffffffffffffffffffffffffff1916827bffffffffffffffffffffffffffffffffffffffffffffffffffffffff1916149050919050565b60008073ffffffffffffffffffffffffffffffffffffffff16611c9983611651565b73ffffffffffffffffffffffffffffffffffffffff1614159050919050565b50505050565b50505050565b6000611ccf82610868565b9050611cdf816000846001611cb8565b611ce882610868565b90506004600083815260200190815260200160002060006101000a81549073ffffffffffffffffffffffffffffffffffffffff02191690556001600360008373ffffffffffffffffffffffffffffffffffffffff1673ffffffffffffffffffffffffffffffffffffffff168152602001908152602001600020600082825403925050819055506002600083815260200190815260200160002060006101000a81549073ffffffffffffffffffffffffffffffffffffffff021916905581600073ffffffffffffffffffffffffffffffffffffffff168273ffffffffffffffffffffffffffffffffffffffff167fddf252ad1be2c89b69c2b068fc378daa952ba7f163c4a11628f55a4df523b3ef60405160405180910390a4611e0e816000846001611cbe565b5050565b6000611e338473ffffffffffffffffffffffffffffffffffffffff16612067565b15611f8c578373ffffffffffffffffffffffffffffffffffffffff1663150b7a02611e5c611202565b8786866040518563ffffffff1660e01b8152600401611e7e94939291906135d5565b6020604051808303816000875af1925050508015611eba57506040513d601f19601f82011682018060405250810190611eb79190613636565b60015b611f3c573d8060008114611eea576040519150601f19603f3d011682016040523d82523d6000602084013e611eef565b606091505b506000815103611f34576040517f08c379a0000000000000000000000000000000000000000000000000000000008152600401611f2b906133f6565b60405180910390fd5b805181602001fd5b63150b7a0260e01b7bffffffffffffffffffffffffffffffffffffffffffffffffffffffff1916817bffffffffffffffffffffffffffffffffffffffffffffffffffffffff191614915050611f91565b600190505b949350505050565b606060006001611fa88461208a565b01905060008167ffffffffffffffff811115611fc757611fc661278b565b5b6040519080825280601f01601f191660200182016040528015611ff95781602001600182028036833780820191505090505b509050600082602001820190505b60011561205c578080600190039150507f3031323334353637383961626364656600000000000000000000000000000000600a86061a8153600a85816120505761204f613663565b5b04945060008503612007575b819350505050919050565b6000808273ffffffffffffffffffffffffffffffffffffffff163b119050919050565b600080600090507a184f03e93ff9f4daa797ed6e38ed64bf6a1f01000000000000000083106120e8577a184f03e93ff9f4daa797ed6e38ed64bf6a1f01000000000000000083816120de576120dd613663565b5b0492506040810190505b6d04ee2d6d415b85acef81000000008310612125576d04ee2d6d415b85acef8100000000838161211b5761211a613663565b5b0492506020810190505b662386f26fc10000831061215457662386f26fc10000838161214a57612149613663565b5b0492506010810190505b6305f5e100831061217d576305f5e100838161217357612172613663565b5b0492506008810190505b61271083106121a257612710838161219857612197613663565b5b0492506004810190505b606483106121c557606483816121bb576121ba613663565b5b0492506002810190505b600a83106121d4576001810190505b80915050919050565b6040518060800160405280600073ffffffffffffffffffffffffffffffffffffffff1681526020016060815260200160608152602001600081525090565b50805461222790612b04565b6000825580601f106122395750612258565b601f016020900490600052602060002090810190612257919061225b565b5b50565b5b8082111561227457600081600090555060010161225c565b5090565b6000604051905090565b600080fd5b600080fd5b60007fffffffff0000000000000000000000000000000000000000000000000000000082169050919050565b6122c18161228c565b81146122cc57600080fd5b50565b6000813590506122de816122b8565b92915050565b6000602082840312156122fa576122f9612282565b5b6000612308848285016122cf565b91505092915050565b60008115159050919050565b61232681612311565b82525050565b6000602082019050612341600083018461231d565b92915050565b600081519050919050565b600082825260208201905092915050565b60005b83811015612381578082015181840152602081019050612366565b60008484015250505050565b6000601f19601f8301169050919050565b60006123a982612347565b6123b38185612352565b93506123c3818560208601612363565b6123cc8161238d565b840191505092915050565b600060208201905081810360008301526123f1818461239e565b905092915050565b6000819050919050565b61240c816123f9565b811461241757600080fd5b50565b60008135905061242981612403565b92915050565b60006020828403121561244557612444612282565b5b60006124538482850161241a565b91505092915050565b600073ffffffffffffffffffffffffffffffffffffffff82169050919050565b60006124878261245c565b9050919050565b6124978161247c565b82525050565b60006020820190506124b2600083018461248e565b92915050565b6124c18161247c565b81146124cc57600080fd5b50565b6000813590506124de816124b8565b92915050565b600080604083850312156124fb576124fa612282565b5b6000612509858286016124cf565b925050602061251a8582860161241a565b9150509250929050565b60008060006060848603121561253d5761253c612282565b5b600061254b868287016124cf565b935050602061255c868287016124cf565b925050604061256d8682870161241a565b9150509250925092565b612580816123f9565b82525050565b600060808201905061259b600083018761248e565b81810360208301526125ad818661239e565b905081810360408301526125c1818561239e565b90506125d06060830184612577565b95945050505050565b6000602082840312156125ef576125ee612282565b5b60006125fd848285016124cf565b91505092915050565b600060208201905061261b6000830184612577565b92915050565b61262a8161247c565b82525050565b600082825260208201905092915050565b600061264c82612347565b6126568185612630565b9350612666818560208601612363565b61266f8161238d565b840191505092915050565b612683816123f9565b82525050565b60006080830160008301516126a16000860182612621565b50602083015184820360208601526126b98282612641565b915050604083015184820360408601526126d38282612641565b91505060608301516126e8606086018261267a565b508091505092915050565b6000602082019050818103600083015261270d8184612689565b905092915050565b61271e81612311565b811461272957600080fd5b50565b60008135905061273b81612715565b92915050565b6000806040838503121561275857612757612282565b5b6000612766858286016124cf565b92505060206127778582860161272c565b9150509250929050565b600080fd5b600080fd5b7f4e487b7100000000000000000000000000000000000000000000000000000000600052604160045260246000fd5b6127c38261238d565b810181811067ffffffffffffffff821117156127e2576127e161278b565b5b80604052505050565b60006127f5612278565b905061280182826127ba565b919050565b600067ffffffffffffffff8211156128215761282061278b565b5b61282a8261238d565b9050602081019050919050565b82818337600083830152505050565b600061285961285484612806565b6127eb565b90508281526020810184848401111561287557612874612786565b5b612880848285612837565b509392505050565b600082601f83011261289d5761289c612781565b5b81356128ad848260208601612846565b91505092915050565b600080600080608085870312156128d0576128cf612282565b5b60006128de878288016124cf565b94505060206128ef878288016124cf565b93505060406129008782880161241a565b925050606085013567ffffffffffffffff81111561292157612920612287565b5b61292d87828801612888565b91505092959194509250565b600067ffffffffffffffff8211156129545761295361278b565b5b61295d8261238d565b9050602081019050919050565b600061297d61297884612939565b6127eb565b90508281526020810184848401111561299957612998612786565b5b6129a4848285612837565b509392505050565b600082601f8301126129c1576129c0612781565b5b81356129d184826020860161296a565b91505092915050565b600080600080608085870312156129f4576129f3612282565b5b6000612a02878288016124cf565b945050602085013567ffffffffffffffff811115612a2357612a22612287565b5b612a2f878288016129ac565b935050604085013567ffffffffffffffff811115612a5057612a4f612287565b5b612a5c878288016129ac565b925050606085013567ffffffffffffffff811115612a7d57612a7c612287565b5b612a89878288016129ac565b91505092959194509250565b60008060408385031215612aac57612aab612282565b5b6000612aba858286016124cf565b9250506020612acb858286016124cf565b9150509250929050565b7f4e487b7100000000000000000000000000000000000000000000000000000000600052602260045260246000fd5b60006002820490506001821680612b1c57607f821691505b602082108103612b2f57612b2e612ad5565b5b50919050565b7f4552433732313a20617070726f76616c20746f2063757272656e74206f776e6560008201527f7200000000000000000000000000000000000000000000000000000000000000602082015250565b6000612b91602183612352565b9150612b9c82612b35565b604082019050919050565b60006020820190508181036000830152612bc081612b84565b9050919050565b7f4552433732313a20617070726f76652063616c6c6572206973206e6f7420746f60008201527f6b656e206f776e6572206f7220617070726f76656420666f7220616c6c000000602082015250565b6000612c23603d83612352565b9150612c2e82612bc7565b604082019050919050565b60006020820190508181036000830152612c5281612c16565b9050919050565b7f4552433732313a2063616c6c6572206973206e6f7420746f6b656e206f776e6560008201527f72206f7220617070726f76656400000000000000000000000000000000000000602082015250565b6000612cb5602d83612352565b9150612cc082612c59565b604082019050919050565b60006020820190508181036000830152612ce481612ca8565b9050919050565b7f4552433732313a20696e76616c696420746f6b656e2049440000000000000000600082015250565b6000612d21601883612352565b9150612d2c82612ceb565b602082019050919050565b60006020820190508181036000830152612d5081612d14565b9050919050565b7f596f7520617265206e6f7420746865206f776e6572206f66207468697320746f60008201527f6b656e0000000000000000000000000000000000000000000000000000000000602082015250565b6000612db3602383612352565b9150612dbe82612d57565b604082019050919050565b60006020820190508181036000830152612de281612da6565b9050919050565b7f4552433732313a2061646472657373207a65726f206973206e6f74206120766160008201527f6c6964206f776e65720000000000000000000000000000000000000000000000602082015250565b6000612e45602983612352565b9150612e5082612de9565b604082019050919050565b60006020820190508181036000830152612e7481612e38565b9050919050565b7f4e6f20757365727320666f722074686973206164647265737300000000000000600082015250565b6000612eb1601983612352565b9150612ebc82612e7b565b602082019050919050565b60006020820190508181036000830152612ee081612ea4565b9050919050565b7f4e487b7100000000000000000000000000000000000000000000000000000000600052603260045260246000fd5b60008190508160005260206000209050919050565b60006020601f8301049050919050565b600082821b905092915050565b600060088302612f787fffffffffffffffffffffffffffffffffffffffffffffffffffffffffffffffff82612f3b565b612f828683612f3b565b95508019841693508086168417925050509392505050565b6000819050919050565b6000612fbf612fba612fb5846123f9565b612f9a565b6123f9565b9050919050565b6000819050919050565b612fd983612fa4565b612fed612fe582612fc6565b848454612f48565b825550505050565b600090565b613002612ff5565b61300d818484612fd0565b505050565b5b8181101561303157613026600082612ffa565b600181019050613013565b5050565b601f8211156130765761304781612f16565b61305084612f2b565b8101602085101561305f578190505b61307361306b85612f2b565b830182613012565b50505b505050565b600082821c905092915050565b60006130996000198460080261307b565b1980831691505092915050565b60006130b28383613088565b9150826002028217905092915050565b6130cb82612347565b67ffffffffffffffff8111156130e4576130e361278b565b5b6130ee8254612b04565b6130f9828285613035565b600060209050601f83116001811461312c576000841561311a578287015190505b61312485826130a6565b86555061318c565b601f19841661313a86612f16565b60005b828110156131625784890151825560018201915060208501945060208101905061313d565b8683101561317f578489015161317b601f891682613088565b8355505b6001600288020188555050505b505050505050565b600081905092915050565b60006131aa82612347565b6131b48185613194565b93506131c4818560208601612363565b80840191505092915050565b60006131dc828561319f565b91506131e8828461319f565b91508190509392505050565b7f4552433732313a207472616e736665722066726f6d20696e636f72726563742060008201527f6f776e6572000000000000000000000000000000000000000000000000000000602082015250565b6000613250602583612352565b915061325b826131f4565b604082019050919050565b6000602082019050818103600083015261327f81613243565b9050919050565b7f4552433732313a207472616e7366657220746f20746865207a65726f2061646460008201527f7265737300000000000000000000000000000000000000000000000000000000602082015250565b60006132e2602483612352565b91506132ed82613286565b604082019050919050565b60006020820190508181036000830152613311816132d5565b9050919050565b7f4552433732313a20617070726f766520746f2063616c6c657200000000000000600082015250565b600061334e601983612352565b915061335982613318565b602082019050919050565b6000602082019050818103600083015261337d81613341565b9050919050565b7f4552433732313a207472616e7366657220746f206e6f6e20455243373231526560008201527f63656976657220696d706c656d656e7465720000000000000000000000000000602082015250565b60006133e0603283612352565b91506133eb82613384565b604082019050919050565b6000602082019050818103600083015261340f816133d3565b9050919050565b7f4552433732313a206d696e7420746f20746865207a65726f2061646472657373600082015250565b600061344c602083612352565b915061345782613416565b602082019050919050565b6000602082019050818103600083015261347b8161343f565b9050919050565b7f4552433732313a20746f6b656e20616c7265616479206d696e74656400000000600082015250565b60006134b8601c83612352565b91506134c382613482565b602082019050919050565b600060208201905081810360008301526134e7816134ab565b9050919050565b7f45524337323155524953746f726167653a2055524920736574206f66206e6f6e60008201527f6578697374656e7420746f6b656e000000000000000000000000000000000000602082015250565b600061354a602e83612352565b9150613555826134ee565b604082019050919050565b600060208201905081810360008301526135798161353d565b9050919050565b600081519050919050565b600082825260208201905092915050565b60006135a782613580565b6135b1818561358b565b93506135c1818560208601612363565b6135ca8161238d565b840191505092915050565b60006080820190506135ea600083018761248e565b6135f7602083018661248e565b6136046040830185612577565b8181036060830152613616818461359c565b905095945050505050565b600081519050613630816122b8565b92915050565b60006020828403121561364c5761364b612282565b5b600061365a84828501613621565b91505092915050565b7f4e487b7100000000000000000000000000000000000000000000000000000000600052601260045260246000fdfea2646970667358221220dd38fb9085e306520f5ac01b2e2d66417814977dd7d48227b23303b9ed9d469e64736f6c63430008180033",
  "linkReferences": {},
  "deployedLinkReferences": {}
}